{
    "contractName": "TwitterList",
    "abi": [
        {
            "anonymous": false,
            "inputs": [
                {
                    "indexed": false,
                    "internalType": "int256",
                    "name": "id",
                    "type": "int256"
                },
                {
                    "indexed": false,
                    "internalType": "string",
                    "name": "txt",
                    "type": "string"
                }
            ],
            "name": "TwitterCreated",
            "type": "event"
        },
        {
            "anonymous": false,
            "inputs": [
                {
                    "indexed": false,
                    "internalType": "int256",
                    "name": "id",
                    "type": "int256"
                }
            ],
            "name": "TwitterDeleted",
            "type": "event"
        },
        {
            "anonymous": false,
            "inputs": [
                {
                    "indexed": false,
                    "internalType": "int256",
                    "name": "id",
                    "type": "int256"
                },
                {
                    "indexed": false,
                    "internalType": "string",
                    "name": "txt",
                    "type": "string"
                }
            ],
            "name": "TwitterUpdated",
            "type": "event"
        },
        {
            "inputs": [],
            "name": "count",
            "outputs": [
                {
                    "internalType": "int256",
                    "name": "",
                    "type": "int256"
                }
            ],
            "stateMutability": "view",
            "type": "function"
        },
        {
            "inputs": [
                {
                    "internalType": "int256",
                    "name": "_id",
                    "type": "int256"
                }
            ],
            "name": "deleteTweet",
            "outputs": [],
            "stateMutability": "nonpayable",
            "type": "function"
        },
        {
            "inputs": [
                {
                    "internalType": "string",
                    "name": "_tweet",
                    "type": "string"
                }
            ],
            "name": "insertTweet",
            "outputs": [],
            "stateMutability": "nonpayable",
            "type": "function"
        },
        {
            "inputs": [
                {
                    "internalType": "int256",
                    "name": "",
                    "type": "int256"
                }
            ],
            "name": "tweets",
            "outputs": [
                {
                    "internalType": "string",
                    "name": "txt",
                    "type": "string"
                },
                {
                    "internalType": "int256",
                    "name": "id",
                    "type": "int256"
                }
            ],
            "stateMutability": "view",
            "type": "function"
        },
        {
            "inputs": [
                {
                    "internalType": "int256",
                    "name": "_id",
                    "type": "int256"
                },
                {
                    "internalType": "string",
                    "name": "txt",
                    "type": "string"
                }
            ],
            "name": "updateTweet",
            "outputs": [],
            "stateMutability": "nonpayable",
            "type": "function"
        }
    ],
    "bytecode": "6080604052600060015534801561001557600080fd5b506106d9806100256000396000f3fe608060405234801561001057600080fd5b50600436106100575760003560e01c806306661abd1461005c57806324019c8614610078578063860b7f251461008d5780639c181cfb146100a0578063d9e9c5f1146100b3575b600080fd5b61006560015481565b6040519081526020015b60405180910390f35b61008b610086366004610508565b6100d4565b005b61008b61009b366004610565565b61012d565b61008b6100ae366004610520565b6101db565b6100c66100c1366004610508565b610307565b60405161006f929190610604565b6000818152602081905260408120906100ed82826103ab565b506000600191909101556040518181527f8f81288f2387db3add7c66710f28c502fb210cbcf9e50f24847439355274fed59060200160405180910390a150565b6001805490600061013d83610661565b909155505060408051808201825282815260015460208083018290528351808501855285815280820183905260009283528282529390912083518051939493919261018d928492909101906103e8565b5060209182015160019091015581015181516040517f22a95ccc9eb01277e34396564798b6b14f65728fda5bbdb5d52de7bee7cd9580926101cf9290916105eb565b60405180910390a15050565b600082815260208190526040808220815180830190925280548290829061020190610626565b80601f016020809104026020016040519081016040528092919081815260200182805461022d90610626565b801561027a5780601f1061024f5761010080835404028352916020019161027a565b820191906000526020600020905b81548152906001019060200180831161025d57829003601f168201915b50505091835250506001919091015460209182015283825260008581528082526040902082518051939450849391926102b8928492909101906103e8565b5060209182015160019091015581015181516040517fa76446ed2d230cf45dab4e7f9d07587359c87fad17d482d615e4c02c4fdbe1e9926102fa9290916105eb565b60405180910390a1505050565b60006020819052908152604090208054819061032290610626565b80601f016020809104026020016040519081016040528092919081815260200182805461034e90610626565b801561039b5780601f106103705761010080835404028352916020019161039b565b820191906000526020600020905b81548152906001019060200180831161037e57829003601f168201915b5050505050908060010154905082565b5080546103b790610626565b6000825580601f106103c7575050565b601f0160209004906000526020600020908101906103e5919061046c565b50565b8280546103f490610626565b90600052602060002090601f016020900481019282610416576000855561045c565b82601f1061042f57805160ff191683800117855561045c565b8280016001018555821561045c579182015b8281111561045c578251825591602001919060010190610441565b5061046892915061046c565b5090565b5b80821115610468576000815560010161046d565b600082601f830112610491578081fd5b813567ffffffffffffffff808211156104ac576104ac61068d565b604051601f8301601f19908116603f011681019082821181831017156104d4576104d461068d565b816040528381528660208588010111156104ec578485fd5b8360208701602083013792830160200193909352509392505050565b600060208284031215610519578081fd5b5035919050565b60008060408385031215610532578081fd5b82359150602083013567ffffffffffffffff81111561054f578182fd5b61055b85828601610481565b9150509250929050565b600060208284031215610576578081fd5b813567ffffffffffffffff81111561058c578182fd5b61059884828501610481565b949350505050565b60008151808452815b818110156105c5576020818501810151868301820152016105a9565b818111156105d65782602083870101525b50601f01601f19169290920160200192915050565b82815260406020820152600061059860408301846105a0565b60408152600061061760408301856105a0565b90508260208301529392505050565b600181811c9082168061063a57607f821691505b6020821081141561065b57634e487b7160e01b600052602260045260246000fd5b50919050565b60006001600160ff1b0382141561068657634e487b7160e01b81526011600452602481fd5b5060010190565b634e487b7160e01b600052604160045260246000fdfea2646970667358221220fafce62053b36ae58b260e07d5e60d30bed4e8667cf8f2d19032f005792bcfad64736f6c63430008040033",
    "sourcePath": "/Users/rajeshkhadka/Documents/blockchain/blockchain-feed/contracts/TwitterList.sol",
    "compiler": {
        "name": "solc",
        "version": "0.8.4+commit.c7e474f2"
    },
    "functionHashes": {
        "count()": "06661abd",
        "deleteTweet(int256)": "24019c86",
        "insertTweet(string)": "860b7f25",
        "tweets(int256)": "d9e9c5f1",
        "updateTweet(int256,string)": "9c181cfb"
    },
    "gasEstimates": {
        "creation": {
            "codeDepositCost": "350600",
            "executionCost": "5392",
            "totalCost": "355992"
        },
        "external": {
            "count()": "962",
            "deleteTweet(int256)": "infinite",
            "insertTweet(string)": "infinite",
            "tweets(int256)": "infinite",
            "updateTweet(int256,string)": "infinite"
        }
    }
}