{
  "contractName": "TwitterList",
  "abi": [
    {
      "anonymous": false,
      "inputs": [
        {
          "indexed": false,
          "internalType": "uint256",
          "name": "count",
          "type": "uint256"
        }
      ],
      "name": "TweeterTotalCount",
      "type": "event"
    },
    {
      "anonymous": false,
      "inputs": [
        {
          "indexed": false,
          "internalType": "uint256",
          "name": "id",
          "type": "uint256"
        },
        {
          "indexed": false,
          "internalType": "string",
          "name": "txt",
          "type": "string"
        }
      ],
      "name": "TwitterCreated",
      "type": "event"
    },
    {
      "anonymous": false,
      "inputs": [
        {
          "indexed": false,
          "internalType": "uint256",
          "name": "id",
          "type": "uint256"
        }
      ],
      "name": "TwitterDeleted",
      "type": "event"
    },
    {
      "anonymous": false,
      "inputs": [
        {
          "indexed": false,
          "internalType": "uint256",
          "name": "id",
          "type": "uint256"
        },
        {
          "indexed": false,
          "internalType": "string",
          "name": "txt",
          "type": "string"
        }
      ],
      "name": "TwitterUpdated",
      "type": "event"
    },
    {
      "constant": true,
      "inputs": [],
      "name": "count",
      "outputs": [
        {
          "internalType": "uint256",
          "name": "",
          "type": "uint256"
        }
      ],
      "payable": false,
      "stateMutability": "view",
      "type": "function"
    },
    {
      "constant": true,
      "inputs": [],
      "name": "name",
      "outputs": [
        {
          "internalType": "string",
          "name": "",
          "type": "string"
        }
      ],
      "payable": false,
      "stateMutability": "view",
      "type": "function"
    },
    {
      "constant": true,
      "inputs": [
        {
          "internalType": "uint256",
          "name": "",
          "type": "uint256"
        }
      ],
      "name": "tweets",
      "outputs": [
        {
          "internalType": "string",
          "name": "txt",
          "type": "string"
        },
        {
          "internalType": "uint256",
          "name": "id",
          "type": "uint256"
        }
      ],
      "payable": false,
      "stateMutability": "view",
      "type": "function"
    },
    {
      "constant": false,
      "inputs": [],
      "name": "getCountOfTweets",
      "outputs": [],
      "payable": false,
      "stateMutability": "nonpayable",
      "type": "function"
    },
    {
      "constant": false,
      "inputs": [
        {
          "internalType": "string",
          "name": "txt",
          "type": "string"
        }
      ],
      "name": "insertTweet",
      "outputs": [],
      "payable": false,
      "stateMutability": "nonpayable",
      "type": "function"
    },
    {
      "constant": false,
      "inputs": [
        {
          "internalType": "uint256",
          "name": "_id",
          "type": "uint256"
        },
        {
          "internalType": "string",
          "name": "txt",
          "type": "string"
        }
      ],
      "name": "updateTweet",
      "outputs": [],
      "payable": false,
      "stateMutability": "nonpayable",
      "type": "function"
    },
    {
      "constant": false,
      "inputs": [
        {
          "internalType": "uint256",
          "name": "_id",
          "type": "uint256"
        }
      ],
      "name": "deleteTweet",
      "outputs": [],
      "payable": false,
      "stateMutability": "nonpayable",
      "type": "function"
    }
  ],
  "bytecode": "0x608060405260016000556040518060400160405280601581526020017f50726f6a65637420426974636f696e2e2e2e212121000000000000000000000081525060019080519060200190610054929190610067565b5034801561006157600080fd5b5061010c565b828054600181600116156101000203166002900490600052602060002090601f016020900481019282601f106100a857805160ff19168380011785556100d6565b828001600101855582156100d6579182015b828111156100d55782518255916020019190600101906100ba565b5b5090506100e391906100e7565b5090565b61010991905b808211156101055760008160009055506001016100ed565b5090565b90565b6109e88061011b6000396000f3fe608060405234801561001057600080fd5b506004361061009a576000357c0100000000000000000000000000000000000000000000000000000000900480637c0aa77a116100785780637c0aa77a1461016e578063860b7f2514610233578063d8ac8819146102ee578063e8d857b0146102f85761009a565b806306661abd1461009f57806306fdde03146100bd5780635775912a14610140575b600080fd5b6100a76103a6565b6040518082815260200191505060405180910390f35b6100c56103ac565b6040518080602001828103825283818151815260200191508051906020019080838360005b838110156101055780820151818401526020810190506100ea565b50505050905090810190601f1680156101325780820380516001836020036101000a031916815260200191505b509250505060405180910390f35b61016c6004803603602081101561015657600080fd5b810190808035906020019092919050505061044a565b005b6102316004803603604081101561018457600080fd5b8101908080359060200190929190803590602001906401000000008111156101ab57600080fd5b8201836020820111156101bd57600080fd5b803590602001918460018302840111640100000000831117156101df57600080fd5b91908080601f016020809104026020016040519081016040528093929190818152602001838380828437600081840152601f19601f8201169050808301925050505050505091929192905050506104b2565b005b6102ec6004803603602081101561024957600080fd5b810190808035906020019064010000000081111561026657600080fd5b82018360208201111561027857600080fd5b8035906020019184600183028401116401000000008311171561029a57600080fd5b91908080601f016020809104026020016040519081016040528093929190818152602001838380828437600081840152601f19601f82011690508083019250505050505050919291929050505061067e565b005b6102f66107b5565b005b6103246004803603602081101561030e57600080fd5b81019080803590602001909291905050506107f0565b6040518080602001838152602001828103825284818151815260200191508051906020019080838360005b8381101561036a57808201518184015260208101905061034f565b50505050905090810190601f1680156103975780820380516001836020036101000a031916815260200191505b50935050505060405180910390f35b60005481565b60018054600181600116156101000203166002900480601f0160208091040260200160405190810160405280929190818152602001828054600181600116156101000203166002900480156104425780601f1061041757610100808354040283529160200191610442565b820191906000526020600020905b81548152906001019060200180831161042557829003601f168201915b505050505081565b600260008281526020019081526020016000206000808201600061046e91906108ac565b600182016000905550507f4dd8de426286f46999ccd0b817ab8827e0d4dae6227f560cd81a1e6fee07c6ec816040518082815260200191505060405180910390a150565b6104ba6108f4565b60026000848152602001908152602001600020604051806040016040529081600082018054600181600116156101000203166002900480601f0160208091040260200160405190810160405280929190818152602001828054600181600116156101000203166002900480156105715780601f1061054657610100808354040283529160200191610571565b820191906000526020600020905b81548152906001019060200180831161055457829003601f168201915b505050505081526020016001820154815250509050818160000181905250806002600085815260200190815260200160002060008201518160000190805190602001906105bf92919061090e565b50602082015181600101559050507fdd8689b3bfe4483c579e19a61bd2ca780437f4d173ea4474589c9149e5bfb214816020015182600001516040518083815260200180602001828103825283818151815260200191508051906020019080838360005b8381101561063e578082015181840152602081019050610623565b50505050905090810190601f16801561066b5780820380516001836020036101000a031916815260200191505b50935050505060405180910390a1505050565b60008081548092919060010191905055506106976108f4565b604051806040016040528083815260200160005481525090506040518060400160405280838152602001600054815250600260008054815260200190815260200160002060008201518160000190805190602001906106f792919061090e565b50602082015181600101559050507f207a980acd49418a65f0c2c5facab6e4b82791950c182b8d0ed5af55d8bb1a8d816020015182600001516040518083815260200180602001828103825283818151815260200191508051906020019080838360005b8381101561077657808201518184015260208101905061075b565b50505050905090810190601f1680156107a35780820380516001836020036101000a031916815260200191505b50935050505060405180910390a15050565b7f97955fb912185098df4f660ffb8704730ac722bdad8847629dedc94187d7dec16000546040518082815260200191505060405180910390a1565b6002602052806000526040600020600091509050806000018054600181600116156101000203166002900480601f01602080910402602001604051908101604052809291908181526020018280546001816001161561010002031660029004801561089c5780601f106108715761010080835404028352916020019161089c565b820191906000526020600020905b81548152906001019060200180831161087f57829003601f168201915b5050505050908060010154905082565b50805460018160011615610100020316600290046000825580601f106108d257506108f1565b601f0160209004906000526020600020908101906108f0919061098e565b5b50565b604051806040016040528060608152602001600081525090565b828054600181600116156101000203166002900490600052602060002090601f016020900481019282601f1061094f57805160ff191683800117855561097d565b8280016001018555821561097d579182015b8281111561097c578251825591602001919060010190610961565b5b50905061098a919061098e565b5090565b6109b091905b808211156109ac576000816000905550600101610994565b5090565b9056fea265627a7a723158200ad994758693c7ad5415918018eddeb70f77c43acc489d3ee70f2227595afa4b64736f6c63430005100032",
  "source": "// SPDX-License-Identifier: MIT\npragma solidity >=0.4.22 <0.9.0;\n\ncontract TwitterList {\n    uint public count = 1;\n    string public name = 'Project Bitcoin...!!!';\n    mapping(uint => Tweet) public tweets;\n    event TwitterCreated(uint id, string txt);\n    event TwitterUpdated(uint id, string txt);\n    event TwitterDeleted(uint id);\n    event TweeterTotalCount(uint count);\n    \n\n    struct Tweet {\n        string txt;\n        uint id;\n    }\n\n    function getCountOfTweets() public {\n        emit TweeterTotalCount(count); \n    }\n\n    function insertTweet(string memory txt) public {\n        count++;\n        Tweet memory tweet = Tweet(txt, count);\n        tweets[count] = Tweet(txt, count);\n        emit TwitterCreated(tweet.id, tweet.txt);\n    }\n\n    function updateTweet(uint _id, string memory txt) public {\n        Tweet memory _tweet = tweets[_id];\n        _tweet.txt = txt;\n        tweets[_id] = _tweet;\n        emit TwitterUpdated(_tweet.id, _tweet.txt);\n    }\n\n    function deleteTweet(uint _id) public {\n        delete tweets[_id];\n        emit TwitterDeleted(_id);\n    }\n}\n",
  "sourcePath": "/Users/Niraj/Projects/etheruem/blockchain-feed-main/contracts/TwitterList.sol",
  "compiler": {
    "name": "solc",
    "version": "0.5.16+commit.9c3226ce.Emscripten.clang"
  },
  "schemaVersion": "3.4.1",
  "updatedAt": "2021-05-14T10:36:23.663Z",
  "networkType": "ethereum",
  "devdoc": {
    "methods": {}
  },
  "userdoc": {
    "methods": {}
  }
}